:020000040000FA
:1000000000600020E9040000FB040000FD04000083
:10001000FF040000010500000305000000000000CF
:1000200000000000000000000000000029040000A3
:100030000705000000000000850400000D0C000012
:100040000D0500000D0500000D0500000D05000068
:100050000D0500000D0500000D0500000D05000058
:100060000D0500000D0500000D0500000D05000048
:100070000D0500000D0500000D0500000D05000038
:100080000D0500000D0500000D0500000D05000028
:100090000D0500000D0500000D0500000D05000018
:1000A0000D0500000D0500000D0500000D05000008
:1000B0000D0500000D0500000D0500000D050000F8
:1000C0000D0500000D0500000D0500000D050000E8
:1000D0000D0500000D0500000D0500000D050000D8
:1000E0000D0500000D0500000D0500000D050000C8
:1000F0000D0500000D0500000D0500000D050000B8
:100100000D0500000D0500000D0500000D050000A7
:100110000D0500000D0500000D0500000D05000097
:100120000D0500000D0500000D0500000D05000087
:100130000D0500000D0500000D0500000D05000077
:100140000D0500000D0500000D0500000D05000067
:100150000D0500000D0500000D0500000D05000057
:100160000D0500000D0500000D0500000D05000047
:100170000D0500000D0500000D0500000D05000037
:100180000D050000590600000D0500000D050000DA
:100190000D0500000D0500000D0500000D05000017
:1001A0000D0500000D0500000D0500000D05000007
:1001B0000D0500000D0500000D0500000D050000F7
:1001C0000D0500000D0500000D0500000D050000E7
:1003F0000D0500000D0500000D050000FFFFFFFFCB
:020000040000FA
:10040000FFFFFFFFFFFFFFFFFFFFFFFFFE7FFFFF7D
:020000040000FA
:10041000DFF810D000F0B6F800480047CD1100001A
:10042000AFF30080006000202C4B19680868B0E82A
:10043000F04F80F30988BFF36F8F4FF0000080F317
:10044000118870470000000008480068006880F3C9
:1004500008884FF0000080F3148862B661B6BFF3DD
:100460004F8FBFF36F8F00DF00BF00BF08ED00E0CC
:10047000DFF80C00016841F470010160704700BFB3
:1004800088ED00E0EFF30980BFF36F8F134B1A681C
:100490001EF0100F08BF20ED108A20E9F04F106009
:1004A00009B44FF0500080F31188BFF34F8FBFF3B2
:1004B0006F8F01F021FD4FF0000080F3118809BC1F
:1004C00019680868B0E8F04F1EF0100F08BFB0ECD4
:1004D000108A80F30988BFF36F8F704700000020F7
:1004E000EFF3058070470000094872B6094880475D
:1004F0000948804762B609480047FEE7FEE7FEE785
:10050000FEE7FEE7FEE7FEE7FEE7FEE7FEE70000A8
:1005100000040000B90C0000851100001104000067
:1005200040EA01039B0703D009E008C9121F08C075
:10053000042AFAD203E011F8013B00F8013B521EF5
:10054000F9D27047D2B201E000F8012B491EFBD26C
:1005500070470022F6E710B513460A4604461946CE
:10056000FFF7F0FF204610BD30B5044600200346DB
:1005700000E05B1C934203D2E05CCD5C401BF8D0F2
:1005800030BD0000064C074D06E0E06840F0010376
:1005900094E8070098471034AC42F6D3FFF73CFFCD
:1005A000B8290000082A000046F2350CC2F2000CFF
:1005B000604746F2711CC2F2000C604746F22D1CE7
:1005C000C2F2000C60470000194830B440F201113B
:1005D000C0F804112421C0F80811D0F80011090254
:1005E000FBD40123C0F800311249D0F80021D20118
:1005F000FBD50A681202FCD400220A600D4C40F2BE
:100600000232241D2260241D4FF4C01222600A68A9
:100610001202FCD40B600A68D201FCD50649416184
:100620000169C1F303610629FAD130BC00F004BBB3
:1006300000400640004606401200010605480449F5
:1006400041604FF6FF7181604FF4045101607047C3
:1006500020C528D9002005407CB51F4C0021206B07
:10066000800606D5D4F88000C20203D5A0684020D9
:1006700020637CBD820200D50121C0F30343D4F87E
:10068000840021B120F0604040F0004201E0C0F35E
:100690008A42D4F88810D4F88C00A56820252563F8
:1006A0000C0E8DF800400C0C8DF801400C0A8DF8F2
:1006B00002408DF80310010E8DF80410010C8DF826
:1006C0000510010A8DF806108DF8070091B26A46F0
:1006D000024800F0A1F87CBD00400240FCA1FF1FD1
:1006E0007CB519A04FF4E025D0E90010CDE9001049
:1006F000174C2868002620606868606008226946F8
:100700002046FFF731FF80B1DDE90001C4E90001B7
:1007100000F0D6F94FF480563246294604F5805051
:10072000FFF742FF040002D009E030467CBD084BD1
:100730003246294603F58050FFF73BFF044600F0A0
:10074000C7F920467CBD000041505055504F4B200A
:10075000200C0020154A10B5D2F8704100234FF448
:10076000004414630C7864F31F634C7864F31743FC
:100770008C7864F30F23CC7864F30703C2F87831E4
:100780000C7964F31F634C7964F317438C79C9794E
:1007900064F30F2361F30703C2F87C310449C2F804
:1007A00070118004C2F87401002010BD00400240A6
:1007B0000000480C70B50C46054600F081F9287819
:1007C00028B3A87805EB001148682060087C2073E6
:1007D000087A2071487A6071887AA071C87AE071CD
:1007E000087B2072487B6072887BA072C87BE072B5
:1007F000A878401CC0B2A8701E2801D30020A870A1
:100800002878401E287000F063F9002070BD00F0C9
:100810005FF94FF0FF3070BD2DE9F0411E461446E0
:100820000F46054600F04CF9687805EB001047606C
:1008300006742178017261784172A1788172E17841
:10084000C1722179017361794173A1798173E17971
:10085000C1736878401CC0B268701E2801D30020A4
:1008600068702878401C2870BDE8F04100F030B96D
:100870000F4850F8841F41F0804101600D48017815
:1008800041F0800101700D480B4901600121818018
:100890000022C2800C2383605B42C360084B03616B
:1008A0008182C182826108228283C18370470000F5
:1008B00000500640001002404080FF1F00900040A2
:1008C0003C1C00200549002048770548818B4906DB
:1008D000FCD4818B41F0800181837047008000400F
:1008E0000090004001490248FFF768BE201C00202C
:1008F000702900002B4850F8901F41F080410160A2
:100900002949086840F000400860486820F4005019
:100910004860086820F000400860086840F08040A7
:100920000860086840F0805008600868C001FCD585
:1009300008681E4A1043086000224A601C4848604C
:10094000486820F0400048600868800005D5486B82
:1009500020F0706040F080704863182001EB800345
:10096000C3F88020401CC0B28028F7D3002001EBE0
:100970008003C3F88028401CC0B21028F7D30A6156
:1009800020208862086820F080500860086820F005
:10099000804008600868C001FCD408680001FCD4ED
:1009A0007047000000500640004002401000032045
:1009B000D6CCE2000F4810B5D0F8341141F0804198
:1009C000C0F834110C48016941F4A061016141692A
:1009D00041F4A0614161FFF78DFF4FF0E0204FF43B
:1009E0000031C0F88812C0F808110449602008706E
:1009F00010BD00000050064000D0044051E400E06B
:100A000070B50FA0D0E900120F48C0E9001200F045
:100A100057F84FF480554FF4E0262A4631460B48EC
:100A2000FFF7C2FD040006D1074B2A4631460748AE
:100A3000FFF7BFFD044600F04BF800BF204670BD35
:100A4000474F544F424F4F54200C0020201C002091
:100A50001449D1F8300140F08040C1F83001124A09
:100A6000106840F480701060104850F8D43F43F094
:100A7000010340F81439036823F001030360D1F83F
:100A8000303143F08043C1F83031516841F4807116
:100A90005160416941F002014161016821F00201A8
:100AA000016070470050064000C0044000F00F4055
:100AB000024940F22310FFF74DBE00003880FF1FAF
:100AC00072B602480168491C016070475080FF1FE0
:100AD00004490868002804DD401E0860002800DC86
:100AE00062B670475080FF1F2DE9F04F4178002417
:100AF00001F07F00CD09012785B01646A0464FF0D2
:100B000050094FF0320A4FF0F40B01280AD00228A6
:100B10001AD003282FD0122400F01CFB05B0204669
:100B2000BDE8F08F002DF7D18DF800908DF80170A1
:100B30001C488DF802808DF804708DF803A08DF8A4
:100B400005B00068134628E0174E3078032805D01A
:100B5000012803D0022801D02224DDE700F0FAFAB0
:100B600002203070002DD7D1FFF74AFF0028D3D1E3
:100B700000F0C0F8D0E700F0EDFA8DF80090032007
:100B80008DF8010007488DF802808DF804708DF80B
:100B900003A08DF805B0006833460622694600F0D0
:100BA00011F9B9E7902900004C80FF1F30B540785B
:100BB000002500F07F04C1095120134B85B0012CA2
:100BC00007D0022C0BD0032C0FD0122505B02846DD
:100BD00030BD0029FAD18DF8000001200AE000297B
:100BE000F4D18DF80000022004E00029EED18DF848
:100BF000000003208DF801001868134602226946A0
:100C000000F0E0F8E2E700009029000010B5502065
:100C100080F31188BFF34F8FBFF36F8F01F0F6FCA5
:100C200018B104494FF080500860002080F311880B
:100C300010BD000004ED00E0194A1069C0F3034341
:100C400010695B1CC0F303611648012913D0022907
:100C500016D003291BD0062911D11348016800685A
:100C6000C1F30221C0F304400E4A10305043491C26
:100C70004900B0FBF1F0B0FBF3F00C49086070479D
:100C8000D2F8081211F0010FF5D10948F3E7D2F8B4
:100C90000803084900F0030051F82000EBE70000CA
:100CA0000040064000127A0008460640540000202A
:100CB00080841E00A82900000A48016841F47001E0
:100CC00001600948016821F0804101600848074936
:100CD0004160416842F2201101604FF6FF7181606E
:100CE0007047000088ED00E034EF00E020C528D90F
:100CF0000020054004490868044A80B2104340F0CF
:100D000004000860704700000CED00E00000FA05E8
:100D1000F0B50478294E91B01546102C47D0112C0F
:100D200048D0222C2ED1877890F801C0244907EBB7
:100D30000C2713461FFA87FCD1E900210027ACF5E8
:100D4000CC4EBEF1660E1FD0312700F003FA3846B4
:100D5000002817D07F218DF800108DF801408DF804
:100D600002004DB111280DD07F280BD0122809D0D8
:100D70007E2807D0312805D0002303226946306839
:100D800000F020F811B0F0BDCDF80320CDF8071029
:100D900062218DF8001041788DF8011080788DF86F
:100DA00002000B226946306800F00CF8CDE7FFF72F
:100DB0009BFECDE7FFF7FAFECAE70000902900008E
:100DC000842900002DE9FF4F83B014460D46D0B2B0
:100DD0004FF0AA0A082A18D28DF8000000206A46AF
:100DE00003E0295C1318401C5970A042F9D3514606
:100DF000072803D21318401C5970F9E711460398CD
:100E0000FFF7A8FC07B0BDE8F08FDFF828810122CA
:100E100088F80020611C0723B1FBF3F6C8F80460D2
:100E2000B1FBF3F603FB161121B1D8F80410491CED
:100E3000C8F804100021C8F80810102343EA14234E
:100E40008DF800308DF8010008466F462B5C3E1887
:100E5000401CB3700628F9DBC8F81420894688F8CE
:100E6000101039460398FFF775FC4FF47A7B46461D
:100E7000C8F80CB004E0307C10B1C6F8149002E061
:100E8000F0680028F7D17069B0BBB07C28B198F841
:100E900012104046802900D2807C7068401E70602D
:100EA000484637E0B068401C00F00F0040F02000DA
:100EB0008DF80000B1687068401E814201D208239D
:100EC00005E0B068A0EBC0002044401FC3B2002082
:100ED0005B1E08E0B1683A18C1EBC1010144294426
:100EE000401C897951709842F4DB5146072804DA96
:100EF0003A18401C5170F9E715E069460398FFF76E
:100F000029FC707C20B1B068717C401C884206D2FC
:100F1000B068401CB060B06871688842C2D3B068E5
:100F20007168884202D388F800906BE786F81090C9
:100F30009DE7000010C4FF1F2DE9FC4151A1D1E93C
:100F40000031CDE900310AB1504D00E0504D02783A
:100F50004FF0010711094FF000063AD00721B7EB17
:100F6000121F05F580544CD16661A6600378427863
:100F700003F00F0302EB032222602268921FB2FBF0
:100F8000F1F2E2602268921FB2FBF1F301FB132140
:100F900001B10121E2681144E160D0F8021029603A
:100FA000C088A880AA208DF804008DF801608DF813
:100FB00005008DF802708DF806008DF803008DF89D
:100FC0000700694640F29770FFF7C4FB2774BDE83D
:100FD000FC814178297081786970C178A9700179A4
:100FE000E9704179297181796971C179A97105F532
:100FF0008055EE60AE60007800F00F0028602F7121
:10100000E5E7E368DBB30223B3EB121FDFD16661D0
:10101000A268521CA260A268037802F00F0203F0DB
:101020000F039A4201D02674D1E7E268022A0FD357
:10103000A16850F8012FC1EBC101294441F8012DED
:1010400082888A8080798871E068401EE060BEE70F
:101050002268921FB2FBF1F301FB132202B90722AF
:10106000A168C1EBC1014B19411C581EFFF758FA8A
:10107000E068401EE060A66026742771A7E7FFE7DE
:10108000A660D0E73000020000000000F8B3FF1FA8
:10109000E0A3FF1F002A0BD1032909D301783029CF
:1010A00006D1044942784A74807888740120087413
:1010B0007047000010C4FF1F2DE9F04700F088FCC6
:1010C000DFF88080204D214C814600261E4948468D
:1010D0004031FFF76FFBC8F8000000282FD11A48F5
:1010E0004030031D0168077B21F00040A0F5E0615E
:1010F000873903D0A0F5E061DF390DD112481830EF
:10110000007820B1002239461846FFF7C3FF0022BD
:1011100039461846FFF710FF207928B1267121685B
:1011200000220B48FFF7F4FD28790028CED02E715D
:101130002968064801221830FFF7EAFDC6E7BDE836
:10114000F087000050000020F8C3FF1FE0B3FF1F2E
:10115000E0A3FF1F024941F2883048627047000057
:1011600010C4FF1F02E008C8121F08C1002AFAD1EC
:1011700070477047002001E001C1121F002AFBD117
:101180007047000078B50D480D490E4A00680024EC
:101190006D46009091420FD00B4B00205B1A04E08B
:1011A00052F8206041F82060401CB0EB930FF7D359
:1011B00055F82400016078BD026078BDA4290000C4
:1011C00000000000000000000080FF1F1CB5FFF7BA
:1011D00035FAFFF7F9F9FFF73BFCFFF7EBFBFFF7F9
:1011E00081FBFFF77DFAFFF743FBFFF76BFB0D4930
:1011F0000020CDE9000103464FF4807422460AA185
:101200000A4801F095F907490120091DCDE90001BF
:101210000023224606A1074801F08AF900F022FEC9
:10122000FEE700003C0000204C454400651D000026
:1012300043414E00891D00002DE9F041184E0F4634
:101240000446F5683068001D00F04AFC38B9306883
:1012500090F82C1001208840316981433161601C75
:1012600007D137B13168BDE8F0410E48091D00F0E3
:10127000A1BC30682C44AC424460316805D2B06BEC
:10128000BDE8F041091D00F07DBC706B091D00F048
:1012900079FCB06A844200D2B462BDE8F0810000FB
:1012A00000000020E881FF1F2DE9F041054600F015
:1012B0008DFC2D4EB068401CB06030682B4F10B1D3
:1012C000706930B32BE03560B068012827D1002465
:1012D00004EB840007EB800000F046FC641C0D2C3E
:1012E000F6D3234800F040FC2148143000F03CFCC9
:1012F0001F48283000F038FC1D483C3000F034FC1A
:101300001B48503000F030FC194870631430B06353
:1013100005E03068E96AC06A884200D83560706AC2
:101320000121401C70626865E86A3269814011439E
:10133000316100EB800007EB8000291D00F03AFCD2
:1013400000F064FC706900280CD03068E96AC06A5B
:10135000884207D207494FF080500860BFF34F8F93
:10136000BFF36F8FBDE8F081000000209480FF1F65
:101370009881FF1F04ED00E038B500F027FC104C09
:101380002068C8B90F4800F0EFFB0E48143000F099
:10139000EBFB0C48E060143020610A4B0020C83B96
:1013A000009003F150020C210A2000F063FE20603F
:1013B00010B105A100F0A2FCBDE8384000F026BC49
:1013C0000080FF1F20010020546D725100000000BA
:1013D00030B4026C0B46002A0BD0C1681144C160C6
:1013E0008468A14201D30168C16030BC1846FFF790
:1013F00097B830BC70472DE9F041856B174604461D
:101400000026026C82B1C7B1E068FFF789F8E16895
:10141000206C091AE1602268914202D2A168081A80
:10142000E060022F16D017E02068A8B9A06801F08C
:1014300057F906460020A0600EE06068FFF770F8DC
:10144000216C606808446060A168884204D3206809
:10145000606001E005B16D1E6D1CA5633046BDE8FE
:10146000F08110B5044690F8690058B101280CD0FD
:1014700002280FD0502080F31188BFF34F8FBFF3A5
:101480006F8FFEE7206B00F0D5FB2046BDE81040D3
:1014900000F0D0BB10BD000010484FF400514207CF
:1014A00006D0C01D0D4920F00700411AC1F50051BA
:1014B0000B4A00230144C2E900030839103A21F025
:1014C000070111604B600B600B1AC0E900139360B9
:1014D0004FF000405360D06070470000FC81FF1F58
:1014E0003080FF1F144E154DA6F5A0774FF08058A1
:1014F000DFF84C9011E000F069FBF068C468201D33
:1015000000F0EEFAA868401EA8606868401E686097
:1015100000F07CFB2046FFF7A4FF68680028EAD1B2
:101520003868012805D9C9F80080BFF34F8FBFF391
:101530006F8F00F0FFFAF0E7D481FF1F000000205A
:1015400004ED00E070B51D46049C49B12260C4E979
:101550000F010121204600F0C1FD84F84C5070BD00
:101560002460F4E72DE9F05F0E46DDE90B941746A1
:10157000834691009A460A9DA522206BFEF7E2FF62
:101580006FF00301206B01EB8701084420F007078F
:10159000780707D0502080F31188BFF34F8FBFF337
:1015A0006F8FFEE74FF0000866B100202218315C13
:1015B00082F83410315C11B1401C1E28F6D384F837
:1015C000518001E084F834800D2D00D30C25E562B4
:1015D000C4E91758201D00F0D2FA04F1180000F0F9
:1015E000CEFA2461C5F10D006462A061C4F8648084
:1015F00084F8688052465946384600F05BFA20600D
:10160000B9F1000F01D0C9F80040BDE8F09F00001B
:1016100030B5114900E011460A688242FBD34B689D
:101620005C18844203D14068184448600846436807
:101630001C18944209D1084C103C2468A24209D0DD
:1016400052681A4442600A6812680260814200D0FF
:10165000086030BD0460F9E73080FF1F70B50024DA
:1016600041600B4D0061914206D8D11A82699142C6
:1016700006D2011D286907E09A4203D2994201D39C
:10168000012403E0011DE86800F07CFA204670BDEB
:101690000080FF1F10B5044600F098FAA06B20B13F
:1016A000002400F0B3FA204610BD0124F9E7000041
:1016B00030B585B0394D67E00198002864DB039CA4
:1016C000606910B1201D00F00BFA04A800F0D8F8F2
:1016D000024601980A2857D2DFE800F00505052DDB
:1016E000334A05052D3394F8280040F0010084F8B2
:1016F00028000298A169034601442046FFF7AEFF87
:1017000068B3216A2046884794F8280040073BD5F3
:10171000002000900298A169002342181946204633
:1017200001F0F8F8D8B9502080F31188BFF34F8F3B
:10173000BFF36F8FFEE714F8280F20F00100207030
:1017400022E094F8280040F0010084F82800029874
:10175000A06128B1811813462046FFF77FFF13E0F0
:10176000502080F31188BFF34F8FBFF36F8FFEE7D8
:1017700094F82800810703D4204600F05BFA03E0C8
:1017800020F0010084F82800002201A9286800F058
:10179000F9FD002890D105B030BD00000080FF1F8A
:1017A0002DE9FC410F46054600F09EFB01A800F024
:1017B00067F80446019818B101F01AF8BDE8FC81F9
:1017C000254EAFB130690068D0B30027291B3A46D7
:1017D000306800F0A5FA01F00BF80028EED11F499F
:1017E0004FF080500860BFF34F8FBFF36F8FE5E776
:1017F000A542EBD800F0FCFFF0682746C068C4683B
:10180000201D00F06DF994F82800410719D5A06952
:101810002B4641193A462046FFF720FFA8B1002089
:101820000346014600902A46204601F073F860B94D
:10183000502080F31188BFF34F8FBFF36F8FFEE707
:1018400007E020F0010084F82800216A204688473C
:10185000B4E70127BAE700000080FF1F04ED00E0B5
:101860000648416B096829B1416BC968C968496874
:10187000816270474FF0FF31FAE70000000000205E
:1018800070B5054600F0BCFE064E0446B0688442C2
:1018900003D200F009F8012000E000202860204673
:1018A000B46070BD0080FF1FF8B5194E20E0C0681D
:1018B000C4680568201D00F013F9216A2046884796
:1018C00094F82800400713D5A0692844A84206D9F7
:1018D00024616060211DF06800F054F908E00020E8
:1018E0000346014600902A46204601F013F838B11D
:1018F000F06801680029DAD13169C6E90310F8BD42
:10190000502080F31188BFF34F8FBFF36F8FFEE736
:101910000080FF1F08484068401C4FF0500080F3D3
:10192000118804D0BFF34F8FBFF36F8FFEE7BFF373
:101930004F8FBFF36F8FFEE71480FF1F084CE068E6
:10194000016839B1002139B10020FFF729FFFFF705
:10195000AFFEF4E70121F6E7C0680068F5E7000094
:101960000080FF1F2DE9F041044600F02FF994F9A3
:10197000455004F1240609E0606A48B1304600F0A1
:10198000FBFE08B100F034FA6D1E6DB2002DF3DCE1
:101990004FF0FF3684F8456000F038F900F016F992
:1019A00094F9445004F1100709E0206948B1384621
:1019B00000F0E2FE08B100F01BFA6D1E6DB2002DC2
:1019C000F3DC84F84460BDE8F04100F01FB900008A
:1019D00000487047FCA1FF1F2DE9F0410546002695
:1019E00000F082FA324F386808B9FFF755FDF86801
:1019F00005424BD1C5B3083568070ED005F0070086
:101A0000C0F108000544680707D0502080F3118812
:101A1000BFF34F8FBFF36F8FFEE72DB3786885421A
:101A200034D8234910310846046801E021460446B1
:101A30006068A84202D220680028F7D13868844242
:101A400024D00E682068086060680836411B1029A1
:101A50000FD96019420708D0502080F31188BFF3D6
:101A60004F8FBFF36F8FFEE710E041606560FFF7B7
:101A7000CFFD61687868401A7860BA68904200D2F9
:101A8000B860F86801430020C4E9000100F0B0FE2E
:101A90000EB900F057F8700707D0502080F3118876
:101AA000BFF34F8FBFF36F8FFEE73046BDE8F08185
:101AB0002080FF1F10B5031F4FF080741C601B1F98
:101AC00021F001011960191F044B0B6014390A60E1
:101AD000091F6FF0020244380A6010BD151900009A
:101AE000D0E9013201699A60D0E901235A604A685D
:101AF000824201D182684A60002202610868401E69
:101B00000860086870470000034B0360A3F500708D
:101B1000086080201060704748030020044B036079
:101B2000A3F5006008604FF400701060704700007B
:101B3000B40B002002484168491C41607047000016
:101B4000440000207047704706490888401C80B256
:101B50000880B0F57A7F04D3002008804A68C1E984
:101B6000010270474400002000F108014FF0FF32ED
:101B7000C0E90112C16001610021016070470021CC
:101B80000161704730B50C68621C02D000F1080298
:101B900002E0026904E01A4653681D68A542FAD9BA
:101BA00053684B6099608A60516008610168491C04
:101BB000016030BD42684A6093688B6093685960E9
:101BC000916008610168491C01607047502080F3F2
:101BD0001188BFF34F8FBFF36F8F0A494868401CCD
:101BE000486001280CD10848006810F0FF0F07D0AA
:101BF000502080F31188BFF34F8FBFF36F8FFEE744
:101C0000704700001480FF1F04ED00E00849486899
:101C100028B1401E486001D180F3118870475020E0
:101C200080F31188BFF34F8FBFF36F8FFEE7000083
:101C30001480FF1F70B5002827D0144DA0F10804B0
:101C40006068E968084207D1502080F31188BFF32B
:101C50004F8FBFF36F8FFEE722683AB1502080F3B9
:101C60001188BFF34F8FBFF36F8FFEE7884360602B
:101C700000F03AF960686968084468602046FFF738
:101C8000C7FCBDE8704000F0B3BD70BD2080FF1FF1
:101C90004FF0E0200021016181610249416107218B
:101CA000016170477F38010010B5FEF719FC11493A
:101CB00010280ED300F1E02090F8F0030A7890424B
:101CC00007D2502080F31188BFF34F8FBFF36F8F7F
:101CD000FEE709480068896800F4E060884207D997
:101CE000502080F31188BFF34F8FBFF36F8FFEE753
:101CF00010BD00001480FF1F0CED00E010B5074B75
:101D0000002253F832401CB1521C082AF9D310BDEE
:101D100043F8321003EBC201486010BD5480FF1F2E
:101D200070B515460E460446FFF750FF94F944106F
:101D30000020491C01D184F8440094F94510491C45
:101D400001D184F84500FFF761FFA06B28B92A464E
:101D5000314604F1240000F069F82046BDE87040E7
:101D6000FFF700BE074C4FF4FA75FEF7A1FED4F85A
:101D7000CC0080F00101C4F8CC10284600F00AF82D
:101D8000F3E7000000F00F40FFF796F9052000F0A0
:101D900001F8F9E710B5020014D00F48006B38B114
:101DA000502080F31188BFF34F8FBFF36F8FFEE792
:101DB00000F09AF800211046FFF73EFA00F018FDF7
:101DC000002807D105494FF080500860BFF34F8FBE
:101DD000BFF36F8F10BD00000000002004ED00E095
:101DE00002490A6A0260C968416070470000002029
:101DF00001490120C86170470000002010B50C4661
:101E000050B1094909681831FFF7BCFE2046BDE80A
:101E100010400121FFF710BA502080F31188BFF362
:101E20004F8FBFF36F8FFEE70000002070B51446A0
:101E30000D4668B10A4909681831FFF7BBFE0CB1BD
:101E40004FF0FF3521462846BDE87040FFF7F4B952
:101E5000502080F31188BFF34F8FBFF36F8FFEE7E1
:101E60000000002030B587B00025039505AA04A91D
:101E700003A80495FFF748FEDDE903010095CDE9CD
:101E80000110002314A11648059A00F07EFB154CA2
:101E9000E06218B100F00EFD012809D0401C19D1F4
:101EA000502080F31188BFF34F8FBFF36F8FFEE791
:101EB000502080F31188BFF34F8FBFF36F8F4FF027
:101EC000FF30A06201206061E56007B0BDE83040EE
:101ED00000F056B807B030BD49444C450000000042
:101EE000E5140000000000200248016B491C01635A
:101EF000704700000000002010B51F4C206B10B18F
:101F00000120E06110BD0020E06120684FF0A532A3
:101F1000006B0168914208D14168914205D1816806
:101F2000914202D1C068904204D0216820683431C7
:101F3000FFF709FE20691149B0FA80F0C0F11F00D7
:101F400000EB800051F820206AB101EB800000F125
:101F50000802416849684160914201D14968416085
:101F6000C868206010BD502080F31188BFF34F8FE8
:101F7000BFF36F8FFEE70000000000209480FF1F7A
:101F80001CB537480168374A914207D1502080F389
:101F90001188BFF34F8FBFF36F8FFEE700683149A1
:101FA000491E884207D1502080F31188BFF34F8F1C
:101FB000BFF36F8FFEE72C4908780190FF2008706F
:101FC00008788DF800009DF800009DF8002000F0D2
:101FD000F000904207D0502080F31188BFF34F8F5C
:101FE000BFF36F8FFEE79DF80000204A00F050001D
:101FF00010700720906006E0401E90609DF8000081
:1020000040008DF800009DF8000000069068F3D4B1
:10201000032807D0502080F31188BFF34F8FBFF300
:102020006F8FFEE74FF440709060019808700C4885
:102030002030016841F470010160016841F0704195
:102040000160FFF725FE00205060FEF711FA0848F6
:10205000016841F040410160FEF7F6F900201CBD27
:1020600000ED00E071C20F4100E400E01480FF1FAA
:1020700034EF00E038B5049D18B153B1CAB181B155
:1020800020E0502080F31188BFF34F8FBFF36F8F94
:10209000FEE7502080F31188BFF34F8FBFF36F8F9F
:1020A000FEE7502080F31188BFF34F8FBFF36F8F8F
:1020B000FEE739B1502080F31188BFF34F8FBFF393
:1020C0006F8FFEE750241C46012384F846302B46D0
:1020D0000094FFF737FA204638BD000070B50D4672
:1020E000040025D0FFF772FDD4E90F20216802FB20
:1020F0000011A1600021A163216861600A46D4E952
:102100000F01401E00FB0121E16021464FF0FF302E
:1021100001F8440F487004F110008DB1FFF724FD61
:1021200004F12400FFF720FDFFF770FD012070BDD2
:10213000502080F31188BFF34F8FBFF36F8FFEE7FE
:1021400021690029F0D000F017FB0028ECD00449E9
:102150004FF080500860BFF34F8FBFF36F8FE3E7FE
:1021600004ED00E02DE9FF4F83B01F468B460400CD
:102170004FF0000603D0BBF1000F08D011E0502053
:1021800080F31188BFF34F8FBFF36F8FFEE7206C92
:1021900038B1502080F31188BFF34F8FBFF36F8F9A
:1021A000FEE7022F0AD1E06B012807D0502080F310
:1021B0001188BFF34F8FBFF36F8FFEE700F012FA65
:1021C000DFF800914FF0000A4FF0805848B90598A9
:1021D00038B1502080F31188BFF34F8FBFF36F8F5A
:1021E000FEE7FFF7F3FCA06BE16B884205D3022FFB
:1021F00003D00598C8B1DEB11EE03A4659462046E4
:10220000FFF7F9F8616A19B104F1240000F0B4FA9B
:1022100028B1C9F80080BFF34F8FBFF36F8FFFF76E
:10222000F5FC012007B0BDE8F08FFFF7EFFC21E0DF
:102230006846FFF7D5FD0126FFF7E8FCFFF754FEDF
:10224000FFF7C4FC94F94400401C01D184F844A079
:1022500094F94500401C01D184F845A0FFF7D6FC55
:1022600005A9684600F02AF930B12046FFF77AFB4D
:1022700000F0BEFA0020D5E7FFF7A8FCA06BE16BE9
:10228000884201D1012500E00025FFF7BFFC95B190
:1022900004F110000599FFF7B1FD2046FFF762FB3E
:1022A00000F0A6FA00289CD1C9F80080BFF34F8F38
:1022B000BFF36F8F95E72046FFF754FB00F098FAC5
:1022C0008FE7000004ED00E02DE9F0471F4690463F
:1022D0008946040003D0B9F1000F08D011E0502066
:1022E00080F31188BFF34F8FBFF36F8FFEE7206C31
:1022F00038B1502080F31188BFF34F8FBFF36F8F39
:10230000FEE7022F0AD1E06B012807D0502080F3AE
:102310001188BFF34F8FBFF36F8FFEE7FFF7C4FC49
:102320005020EFF3118680F31188BFF34F8FBFF376
:102330006F8FA06BE16B884206D3022F04D0002080
:1023400086F31188BDE8F08794F945503A4649462E
:102350002046FFF750F8681C04D06D1C84F84550E7
:102360000120EDE7606A0028FAD004F1240000F0B3
:1023700003FA0028F4D0B8F1000FF1D00121C8F819
:102380000010EDE72DE9F74783B08A4604004FF0CF
:10239000000603D0BAF1000F08D011E0502080F3FE
:1023A0001188BFF34F8FBFF36F8FFEE7206C38B1FA
:1023B000502080F31188BFF34F8FBFF36F8FFEE77C
:1023C00000F010F9DFF8F09000274FF0805848B97E
:1023D000059838B1502080F31188BFF34F8FBFF3B9
:1023E0006F8FFEE7FFF7F2FBA56BC5B151462046A4
:1023F000FEF7EEFF6D1EA563206950B104F11000D9
:1024000000F0BAF928B1C9F80080BFF34F8FBFF3CD
:102410006F8FFFF7FBFB012006B0BDE8F087059842
:1024200008B11EB106E0FFF7F1FB27E06846FFF7B1
:10243000D7FC0126FFF7EAFBFFF756FDFFF7C6FBC7
:1024400094F94400401C01D184F8447094F945008B
:10245000401C01D184F84570FFF7D8FB05A96846F8
:1024600000F02CF8002820460AD0FFF77BFA00F095
:10247000BFF92046FFF70EF90028B3D00020CBE7C4
:10248000FFF708F990B104F124000599FFF7B6FCB5
:102490002046FFF767FA00F0ABF90028A2D1C9F88F
:1024A0000080BFF34F8FBFF36F8F9BE72046FFF78E
:1024B00059FA00F09DF995E704ED00E02DE9F041AF
:1024C0000C46050011D0C4B1FFF780FB174EF16830
:1024D0006B682268C81A571C17D02F68366AB74233
:1024E00019D08B4217D8012410E0502080F31188B6
:1024F000BFF34F8FBFF36F8FFEE7502080F311883B
:10250000BFF34F8FBFF36F8FFEE70024FFF77EFB13
:102510002046BDE8F081824205D9101A2060284685
:10252000FFF75EFCF1E700202060DCE70000002000
:102530002DE9FF5F8346DDE90E87994616468A46F8
:102540009000FFF749FA05001CD06C20FFF744FA11
:10255000040014D00020256384F86900CDE902400E
:10256000CDE900874B46324651465846FEF7FAFF02
:102570002046FEF799FE012004B0BDE8F09F2846F2
:10258000FFF758FB4FF0FF30F6E7F0B585B0054692
:10259000DDE90B040A9EA8B1E4B16C270097206323
:1025A000022084F869000020CDE9024004AF2846EB
:1025B000CDE90067FEF7D6FF2046FEF775FE0498CA
:1025C00005B0F0BD502080F31188BFF34F8FBFF3EB
:1025D0006F8FFEE7502080F31188BFF34F8FBFF35A
:1025E0006F8FFEE70548416919B1006B18B10020F3
:1025F0007047012070470220704700000000002053
:102600000148C06870470000000000202DE9F0413B
:10261000314F0026386B18B1B869401CB86152E0E0
:10262000FD686D1CFD6013D1786B006838B15020D7
:1026300080F31188BFF34F8FBFF36F8FFEE7786B86
:10264000B96B7963B863386A401C3862FFF708F9E0
:10265000B86ADFF88880854209D3786B006890B14A
:10266000786BC068C468606885420FD2B862386809
:10267000C06A00EB800158F82100012800D901262A
:10268000B86900B321E04FF0FF30EFE7201DFFF7FE
:1026900027FAA06A18B104F11800FFF721FAE06ADE
:1026A00001213A6981401143396100EB800108EB57
:1026B0008100211DFFF77EFAE06A3968C96A884205
:1026C000CBD30126C9E7FFF73FFAF86900B101262D
:1026D0003046BDE8F0810000000000209480FF1F1C
:1026E00070B504004FF0000041D0214D29688C42A4
:1026F00007D0502080F31188BFF34F8FBFF36F8F47
:10270000FEE7216E71B1491E2166E36DE26A9A42CD
:102710002DD000292BD1201DFFF7E2F91549012208
:1027200040B112E0502080F31188BFF34F8FBFF308
:102730006F8FFEE7E06A00EB800351F8233023B986
:102740002B6902FA00F083432B61E06DE062C0F177
:102750000D00A061E06A2B6982401A432A6100EBF8
:10276000800001EB8000211DFFF724FA012070BDDD
:10277000000000209480FF1F2DE9F041C068C4686C
:10278000ACB104F118000746FFF7AAF9154D286B04
:102790000126A0B139461448FFF70CFAE06A29680F
:1027A000C96A88421BD90120EE61BDE8F081502042
:1027B00080F31188BFF34F8FBFF36F8FFEE7201DAB
:1027C000FFF78EF9E06A2A6906FA00F111432961E0
:1027D000064900EB800001EB8000211DDCE70020B2
:1027E000E3E7000000000020C081FF1F9480FF1F6E
:1027F0002DE9F0472C4D00242746286B38B1FFF710
:10280000E5F9286B401E2863286B40B146E0502054
:1028100080F31188BFF34F8FBFF36F8FFEE7A86877
:1028200022490126D0B3A1F596798846D8F8001040
:10283000E9B1D8F80C00C46804F11800FFF750F9AA
:10284000201DFFF74DF9E06A2A6906FA00F11143ED
:10285000296100EB800109EB8100211DFFF7AAF936
:10286000E06A2968C96A8842E0D3EE61DEE70CB10C
:10287000FEF7F6FFAC693CB1FFF7C8FE00B1EE61B0
:10288000641EF9D10020A861E86938B10849012720
:1028900038070860BFF34F8FBFF36F8FFFF7B6F9AC
:1028A0003846BDE8F087000000000020C081FF1F0F
:1028B00004ED00E010B586B0FEF75EFD114C206817
:1028C000B8B100200390049005AA04A903A8FFF75B
:1028D00025F9DDE9032102208DE8070000230AA184
:1028E0000B48059AFFF751FE606010B106B0012059
:1028F00010BD502080F31188BFF34F8FBFF36F8F4F
:10290000FEE700000080FF1F546D722053766300C5
:102910003D190000FEB51F460300089E4FF0000061
:1029200013D0124D2C68002C0ED08DE80E00062915
:1029300015DAFFF757FE02284FF000030DD00022F2
:1029400069462868FFF70EFCFEBD502080F3118811
:10295000BFF34F8FBFF36F8FFEE73246F0E70023E0
:102960003A4669462046FFF7AFFCFEBD0080FF1FD8
:10297000000000000000080000000010000000142B
:10298000FFFFFFFF56312E30310000000000000035
:102990009707000087070000DF070000AA0001007A
:1029A000E803000008ED00E0006CDC02007519038C
:1029B000007E560300879303082A00000080FF1F53
:1029C00054000000641100005C2A00000000002098
:1029D0005800000064110000B42A000000600020CC
:1029E00004020000641100005C2A00005480FF1FF4
:1029F000F443000074110000B42A000058000020C5
:102A0000F01B000074110000000000000000000036
:102A100000000000000000000000000000000000B6
:102A2000AAAAAAAA000000000000000000000000FE
:102A30000000000000000000000000000000000096
:102A4000000102030405060748656C6C6F20576F90
:102A5000726C640001000000000000000000000033
:102A60000000000000000000000000000000000066
:102A70000000000000000000000000000000000056
:102A80000000000000000000000000000000000046
:102A90000000000000000000000000000000000036
:102AA0000000000000000000000000000000000026
:102AB000006CDC0270B50B4C06460025207840F017
:102AC0008000207003E0B169481C00D0884720785E
:102AD0000006F8D5207810F0710F00D001252846A7
:102AE00070BD0000000002402DE9F04707460C468B
:102AF000B968002015468C4209D3FA680A44A242FC
:102B000005D9C1F500010C444FF400660DE03968A9
:102B10008C4207D37A680A44A24203D9641A4FF45C
:102B2000805602E0012000252E46711E124A0D42F9
:102B300000D0042090464FF070094FF0090A002D94
:102B400017D0002815D198F800104046090601D486
:102B50000220F4E780F8009080F807A0210C817132
:102B6000210A417104713846FFF7A4FFAD1B3444BC
:102B7000E5E7BDE8F08700000000024030B54FF403
:102B8000803309B34FF0FF3201291FD002291DD035
:102B90005C1003291CD0002504291BD0052915D061
:102BA000062913D0072911D0082913D009290DD0DF
:102BB0000A2911D00B290BD00C2905D00D2905D0DD
:102BC0000E2903D00F2900D1C36030BDC26030BDD3
:102BD000C46030BDC56030BD4FF48041C16030BDC0
:102BE00070B50C4601682160416861608168A16030
:102BF000C16821610069A06109480025C06CC0F36B
:102C000003312046FFF7BAFFE068B0F5803F02D2FB
:102C10004FF4805000E000206061284670BD000045
:102C2000008004402DE9F04107460C4600201E4676
:102C30001546510702D00420BDE8F081B968DFF8DD
:102C400074808C4207D3FA680A44A24203D9C1F5C2
:102C500000010C4429E039688C4205D37A680A44A3
:102C6000A24201D9641A20E001201EE098F8001069
:102C70004046090601D4022017E0702101700721A7
:102C8000C171210C8171210A41710471094A00202E
:102C90000832335C8354401CC0B20828F9D338464C
:102CA000FFF708FF0834083D0836002DC4D000287F
:082CB000DCD0C1E70000024086
:0400000500000411E2
:00000001FF
