:020000040000FA
:1000000000600020B1040000C3040000C50400002B
:10001000C7040000C9040000CB0400000000000079
:10002000000000000000000000000000CD040000FF
:10003000CF04000000000000D1040000D304000041
:10004000D5040000D5040000D5040000D50400004C
:10005000D5040000D5040000D5040000D50400003C
:10006000D5040000D5040000D5040000D50400002C
:10007000D5040000D5040000D5040000D50400001C
:1003F000D5040000D5040000D5040000FFFFFFFF76
:020000040000FA
:10040000FFFFFFFFFFFFFFFFFFFFFFFFFE7FFFFF7D
:020000040000FA
:1004100000F002F800F03CF80AA090E8000C8244DA
:100420008344AAF10107DA4501D100F031F8AFF2B7
:10043000090EBAE80F0013F0010F18BFFB1A43F0C2
:1004400001031847FC0500002C060000103A24BFE9
:1004500078C878C1FAD8520724BF30C830C144BF29
:1004600004680C607047000000230024002500266B
:10047000103A28BF78C1FBD8520728BF30C148BF07
:100480000B6070471FB500F0BCFA1FBD10B510BD62
:10049000DFF80CD0FFF7F6FF00F082FA00F024F846
:1004A0000060002003B4FFF7F1FF03BC00F026F862
:1004B000094872B6094880470948804762B609482A
:1004C0000047FEE7FEE7FEE7FEE7FEE7FEE7FEE7A2
:1004D000FEE7FEE7FEE70000000400003D08000024
:1004E000010900001104000010B50446AFF30080BC
:1004F0002046BDE81040FFF7D5BF704701491820DE
:10050000ABBEFEE72600020080B540F61C20C0F21C
:10051000000048F22801C1F6FF7100F063FA80BDC7
:1005200080B584B000200290FFE702981F280CDC01
:10053000FFE7029A48F20401C1F6FF7108208854CF
:10054000FFE7029801300290EFE700F01FF848F251
:100550002800C1F6FF7001904FF4404100914FF424
:10056000805200F044FA009902460198ADF80E203E
:1005700048F20403C1F6FF73202200F03DFAADF803
:100580000E0000F00DF804B080BD000072B648F215
:100590002401C1F6FF71086801300860704700004F
:1005A00048F22400C1F6FF70006801280EDBFFE767
:1005B00048F22400C1F6FF7001680139016000684B
:1005C000002802DCFFE762B6FFE7FFE770470000A4
:1005D00045F23013C4F20603186840F080401860FA
:1005E0004CF20001C4F20401086840F48070086015
:1005F0004FF2D402C4F20F02106840F00100106004
:100600004FF2C001C4F20F01086820F00100086039
:10061000186840F0804018604CF20403C4F20403F0
:10062000186840F480701860106840F00200106094
:10063000086820F0020008607047000044F21401CE
:10064000C4F206011220C0F201600860FFE744F224
:100650001000C4F20600006800F070610620B0EBE4
:10066000116F01D0FFE7F2E77047000044F2041178
:10067000C4F2060140F20110086044F20811C4F20D
:10068000060124200860FFE744F20010C4F20600CF
:1006900000680002002801D5FFE7F5E744F20011E9
:1006A000C4F2060101200860FFE744F20010C4F222
:1006B00006000068C001002801D4FFE7F5E7704795
:1006C000FFE744F20060C4F2060000680002002860
:1006D00001D5FFE7F5E744F20061C4F2060100200E
:1006E000086044F20461C4F2060140F2023008607E
:1006F00044F20861C4F206014FF4C0100860FFE73D
:1007000044F20060C4F2060000680002002801D52F
:10071000FFE7F5E744F20061C4F20601012008603A
:10072000FFE744F20060C4F206000068C001002840
:1007300001D4FFE7F5E7704787B00020069001215C
:100740008DF8071044F21000C4F20600026802F4AB
:10075000702201EB12410491006800F070614FF0CB
:10076000FF3000EB116001460091052851D8009937
:10077000DFE801F003091E4F4F2F41F20020C0F2C5
:100780007A00069049E044F20820C4F206000068AE
:1007900000F001000590059948F28040C0F21E006B
:1007A00000291CBF41F20020C0F27A00069034E01C
:1007B00044F20830C4F20600006800F0030005901F
:1007C000059940F63020C0F2000050F82100069054
:1007D00023E041F20020C0F27A00069044F2086063
:1007E000C4F20600016801F4E062012101EB12216C
:1007F0000391006800F4F811102000EB1140029002
:1008000006980299484303994900B0FBF1F006901D
:1008100003E000208DF80700FFE79DF80700C00700
:1008200050B1FFE706980499B0FBF1F048F20001DF
:10083000C1F6FF710860FFE707B070474EF68851B8
:10084000CEF20001086840F4700008604EF6347182
:10085000CEF20001086820F08040086042F20400F7
:10086000C4F205004CF22051CDF628110160006859
:1008700042F20001C4F2050142F22010086042F287
:100880000801C4F205014FF6FF70086070470000D0
:1008900083B0029000200190FFE7019802998842FE
:1008A00013D2FFE700200090FFE7009841F2873164
:1008B000884205D8FFE7FFE7009801300090F4E791
:1008C000FFE7019801300190E7E703B070470000AF
:1008D00042F20401C4F205014CF22050CDF628107A
:1008E000086042F20801C4F205014FF6FF7008608B
:1008F00042F20001C4F205014FF404500860704751
:1009000083B04EF60850CEF20000009000208DF823
:10091000070040F20001C0F2000140F20000C0F206
:10092000000088422ED0FFE700200290FFE70298E7
:1009300040F20002C0F2000248F20001C1F6FF716D
:10094000891AB0EB910F12D2FFE7029A40F2000031
:10095000C0F2000050F8220040F20001C0F2000195
:1009600041F82200FFE7029801300290DFE79DF88E
:100970000710684650F8211040F20000C0F2000055
:1009800008600AE09DF80710684650F8211040F210
:100990000000C0F200000860FFE703B070470000ED
:1009A00080B582B000200190FFF792FFFFF75EFE56
:1009B000FFF786FEFFF742FEFFF7BEFEFFF708FED9
:1009C000FFF7A2FDFFF7ACFDFFE74FF2CC01C4F249
:1009D0000F01086880F00200086000BF6420FFF784
:1009E00057FFF2E746F2FD2CC2F2000C604746F2D8
:1009F000610CC2F2000C604746F2713CC2F2000C7E
:100A00006047F1EE100A4FF6FF71C0F2C03120EAE4
:100A1000010040F04070E1EE100A70470000000055
:100A2000000008000000001000000014FFFFFFFF9E
:100A3000006CDC0200751903007E560300879303E7
:100A4000700A00000080FF1F040000004C0400003A
:100A5000740A000000600020CC0400004C04000078
:100A6000740A00000480FF1F4000000068040000BA
:100A7000006CDC0280B582B001900020ADF802006D
:100A80000021C4F20201087840F080000870FFE7FE
:100A90000020C4F202000078000600280AD4FFE714
:100AA00001988069013020B1FFE701988069804793
:100AB000FFE7EDE70020C4F20200007810F0710FAC
:100AC00004D0FFE70120ADF80200FFE7BDF8020007
:100AD00002B080BD80B588B00790069105920020D5
:100AE000ADF812000598019007988068029006986A
:100AF0000299884212D3FFE706980299079AD268B2
:100B0000114488420AD2FFE702990698401A00F57C
:100B1000000006904FF4006003901FE00798006803
:100B2000029006980299884210D3FFE7069802992E
:100B3000079A52681144884208D2FFE70299069842
:100B4000401A06904FF48050039006E00120ADF863
:100B50001200002001900390FFE7FFE7019803993E
:100B60000139084204D0FFE70420ADF81200FFE786
:100B7000FFE701990020009039B1FFE7BDF81200AE
:100B8000B0FA80F040090090FFE70098C007B0B3CA
:100B9000FFE70020C4F2020000780006002804D419
:100BA000FFE70220ADF8120028E00021C4F20201A4
:100BB000702008700721C4F2020109200870BDF8F6
:100BC0001A000621C4F2020108700698000A0521E5
:100BD000C4F20201087006980421C4F202010870F0
:100BE0000798FFF747FFADF8120003990198401AE4
:100BF00001900399069808440690FFE7B9E7BDF80D
:100C0000120008B080BD000082B001908DF8031082
:100C10009DF8030028B9FFE701994FF48030C860C0
:100C2000A3E09DF80300012805D1FFE701994FF0EB
:100C3000FF30C86098E09DF80300022805D1FFE767
:100C400001994FF0FF30C8608DE09DF80300032844
:100C500005D1FFE701994FF40040C86082E09DF89C
:100C60000300042804D1FFE701990020C86078E060
:100C70009DF80300052805D1FFE701994FF0FF30EB
:100C8000C8606DE09DF80300062805D1FFE70199D3
:100C90004FF0FF30C86062E09DF80300072805D1DF
:100CA000FFE701994FF0FF30C86057E09DF803005F
:100CB000082804D1FFE701990020C8604DE09DF8A5
:100CC0000300092805D1FFE701994FF0FF30C86004
:100CD00042E09DF803000A2805D1FFE701994FF48F
:100CE0008040C86037E09DF803000B2805D1FFE77E
:100CF00001994FF40040C8602CE09DF803000C28D7
:100D000005D1FFE701994FF48030C86021E09DF8DC
:100D100003000D2805D1FFE701994FF0FF30C860AF
:100D200016E09DF803000E2805D1FFE701994FF06A
:100D3000FF30C8600BE09DF803000F2805D1FFE7E6
:100D400001994FF48030C86000E0FFE7FFE7FFE75C
:100D5000FFE7FFE7FFE7FFE7FFE7FFE7FFE7FFE763
:100D6000FFE7FFE7FFE7FFE7FFE702B0704700009C
:100D700080B584B0039002910020ADF8060003987E
:100D800000680299086003984068029948600398D7
:100D90008068029988600398C06802990861039886
:100DA00000690299886148F24C00C4F204000068AE
:100DB00080B2000B8DF8050002989DF80510FFF732
:100DC00023FF0298C08928B9FFE702994FF48050A9
:100DD000486103E0029900204861FFE7BDF8060082
:100DE00004B080BD80B588B0079006910592049349
:100DF0000020ADF80E009DF81400400720B1FFE779
:100E00000420ADF80E0097E00798806802900698DD
:100E1000029988420FD3FFE706980299079AD26891
:100E20001144884207D2FFE702990698401A00F55C
:100E30000000069019E00798006802900698029951
:100E400088420DD3FFE706980299079A5268114429
:100E5000884205D2FFE702990698401A069003E0FF
:100E60000120ADF80E00FFE7FFE7FFE7059900203E
:100E7000009039B1FFE7BDF80E00B0FA80F04009EC
:100E80000090FFE70098C007002854D0FFE700203B
:100E9000C4F2020000780006002804D4FFE7022014
:100EA000ADF80E0046E00021C4F202017020087087
:100EB0000721C4F2020107200870BDF81A000621BC
:100EC000C4F2020108700698000A0521C4F202016A
:100ED000087006980421C4F20201087000208DF801
:100EE0000700FFE79DF80700072814D8FFE79DF8E3
:100EF00007000821C4F202010844029004989DF8FA
:100F00000710405C02990870FFE79DF80700013068
:100F10008DF80700E6E70798FFF7ACFDADF80E0087
:100F2000069808300690059808380590049808300F
:100F30000490FFE79AE7FFE7BDF80E0008B080BD18
:0400000500000411E2
:00000001FF
