:020000040000FA
:1000000000700020E9040000FB040000FD04000073
:10001000FF040000010500000305000000000000CF
:1000200000000000000000000000000029040000A3
:10003000070500000000000085040000090600001C
:100040000D0500000D0500000D0500000D05000068
:100050000D0500000D0500000D0500000D05000058
:100060000D0500000D0500000D0500000D05000048
:100070000D0500000D0500000D0500000D05000038
:1003F0000D0500000D0500000D050000FFFFFFFFCB
:020000040000FA
:10040000FFFFFFFFFFFFFFFFFFFFFFFFFE7FFFFF7D
:020000040000FA
:10041000DFF810D000F0A8F80048004759070000A6
:10042000AFF30080007000202C4B19680868B0E81A
:10043000F04F80F30988BFF36F8F4FF0000080F317
:10044000118870470000000008480068006880F3C9
:1004500008884FF0000080F3148862B661B6BFF3DD
:100460004F8FBFF36F8F00DF00BF00BF08ED00E0CC
:10047000DFF80C00016841F470010160704700BFB3
:1004800088ED00E0EFF30980BFF36F8F134B1A681C
:100490001EF0100F08BF20ED108A20E9F04F106009
:1004A00009B44FF0500080F31188BFF34F8FBFF3B2
:1004B0006F8F01F01BF84FF0000080F3118809BC2A
:1004C00019680868B0E8F04F1EF0100F08BFB0ECD4
:1004D000108A80F30988BFF36F8F70471480FF1F65
:1004E000EFF3058070470000094872B6094880475D
:1004F0000948804762B609480047FEE7FEE7FEE785
:10050000FEE7FEE7FEE7FEE7FEE7FEE7FEE70000A8
:1005100000040000B50600001107000011040000EF
:1005200040EA01039B0703D009E008C9121F08C075
:10053000042AFAD203E011F8013B00F8013B521EF5
:10054000F9D27047D2B201E000F8012B491EFBD26C
:1005500070470022F6E710B513460A4604461946CE
:10056000FFF7F0FF204610BD064C074D06E0E0689F
:1005700040F0010394E8070098471034AC42F6D3EA
:10058000FFF74AFF781F0000B81F00000548044924
:1005900041610169C1F303610629FAD17047000086
:1005A0001200010600400640094840F20111C0F85F
:1005B00004112421C0F80811D0F800110902FBD45D
:1005C0000121C0F80011D0F80011C901FBD5704716
:1005D000004006400B4801680902FCD4002101607C
:1005E000084A40F20231121D1160121D4FF4C01171
:1005F000116001680902FCD4012101600168C90190
:10060000FCD570470046064010B5502080F3118895
:10061000BFF34F8FBFF36F8F01F0F2FA18B10449A7
:100620004FF080500860002080F3118810BD00005A
:1006300004ED00E0194A1069C0F3034310695B1C24
:10064000C0F303611648012913D0022916D00329EB
:100650001BD0062911D1134801680068C1F302219B
:10066000C0F304400E4A10305043491C4900B0FB0F
:10067000F1F0B0FBF3F00C4908607047D2F80812B3
:1006800011F0010FF5D10948F3E7D2F80803084942
:1006900000F0030051F82000EBE7000000400640A6
:1006A00000127A00084606402000002080841E00C8
:1006B000681F00000A48016841F4700101600948A0
:1006C000016821F0804101600848074941604168A4
:1006D00042F2201101604FF6FF7181607047000007
:1006E00088ED00E034EF00E020C528D90020054067
:1006F00002E008C8121F08C1002AFAD170477047EB
:10070000002001E001C1121F002AFBD17047000048
:1007100078B50D480D490E4A006800246D460090DA
:1007200091420FD00B4B00205B1A04E052F820607E
:1007300041F82060401CB0EB930FF7D355F824002C
:10074000016078BD026078BD641F000000000000F9
:10075000000000000080FF1F1CB52A4828494160A6
:100760004FF6FF7181604FF404510160FFF71CFFE9
:10077000FFF730FFFFF70AFFFFF75CFF2249D1F8D0
:10078000300140F08040C1F83001204A106840F448
:10079000807010601E4850F8D43F43F0010340F8C9
:1007A0001439036823F001030360D1F8303143F0BA
:1007B0008043C1F83031516841F480715160416922
:1007C00041F002014161016821F00201016011491B
:1007D0000020CDE90001034632220FA10F4801F0AD
:1007E000A1F90C490220091DCDE90001002378225E
:1007F0000BA10C4801F096F900F02EFEFEE7000078
:1008000020C528D9002005400050064000C0044003
:1008100000F00F400080FF1F4C4544004D130000C6
:1008200043414E006D1300002DE9F041184E0F4674
:100830000446F5683068001D00F046FC38B93068A1
:1008400090F82C1001208840316981433161601C8F
:1008500007D137B13168BDE8F0410E48091D00F0FD
:100860009DBC30682C44AC424460316805D2B06B0A
:10087000BDE8F041091D00F079BC706B091D00F066
:1008800075FCB06A844200D2B462BDE8F081000019
:100890001480FF1FFC81FF1F2DE9F041054600F089
:1008A00089FC2D4EB068401CB06030682B4F10B1F1
:1008B000706930B32BE03560B068012827D100247F
:1008C00004EB840007EB800000F042FC641C0D2C5C
:1008D000F6D3234800F03CFC2148143000F038FCEB
:1008E0001F48283000F034FC1D483C3000F030FC3C
:1008F0001B48503000F02CFC194870631430B06372
:1009000005E03068E96AC06A884200D83560706ADC
:100910000121401C70626865E86A326981401143B8
:10092000316100EB800007EB8000291D00F036FCF0
:1009300000F060FC706900280CD03068E96AC06A79
:10094000884207D207494FF080500860BFF34F8FAD
:10095000BFF36F8FBDE8F0811480FF1FA880FF1FD9
:10096000AC81FF1F04ED00E038B500F023FC104C13
:100970002068C8B90F4800F0EBFB0E48143000F0B7
:10098000E7FB0C48E060143020610A4B0020C83BB4
:10099000009003F150020C210A2000F065FE206057
:1009A00010B105A100F09EFCBDE8384000F022BC6B
:1009B00000000020D882FF1F546D7251000000001B
:1009C00030B4026C0B46002A0BD0C1681144C160E0
:1009D0008468A14201D30168C16030BC1846FFF7AA
:1009E0009FBD30BC70472DE9F041856B174604462A
:1009F0000026026C82B1C7B1E068FFF791FDE168A3
:100A0000206C091AE1602268914202D2A168081A9A
:100A1000E060022F16D017E02068A8B9A06801F0A6
:100A200059F906460020A0600EE06068FFF778FDE7
:100A3000216C606808446060A168884204D3206823
:100A4000606001E005B16D1E6D1CA5633046BDE818
:100A5000F08110B5044690F8690058B101280CD017
:100A600002280FD0502080F31188BFF34F8FBFF3BF
:100A70006F8FFEE7206B00F0D1FB2046BDE81040F1
:100A800000F0CCBB10BD000010484FF400514207ED
:100A900006D0C01D0D4920F00700411AC1F50051D4
:100AA0000B4A00230144C2E900030839103A21F03F
:100AB000070111604B600B600B1AC0E900139360D3
:100AC0004FF000405360D060704700000083FF1F6C
:100AD0006080FF1F144E154DA6F5A0774FF080588B
:100AE000DFF84C9011E000F065FBF068C468201D51
:100AF00000F0EAFAA868401EA8606868401E6860B6
:100B000000F078FB2046FFF7A4FF68680028EAD1D0
:100B10003868012805D9C9F80080BFF34F8FBFF3AB
:100B20006F8F00F0FBFAF0E7E881FF1F1480FF1FD2
:100B300004ED00E070B51D46049C49B12260C4E993
:100B40000F010121204600F0C3FD84F84C5070BD18
:100B50002460F4E72DE9F05F0E46DDE90B941746BB
:100B6000834691009A460A9DA522206BFFF7EAFC76
:100B70006FF00301206B01EB8701084420F00707A9
:100B8000780707D0502080F31188BFF34F8FBFF351
:100B90006F8FFEE74FF0000866B100202218315C2D
:100BA00082F83410315C11B1401C1E28F6D384F851
:100BB000518001E084F834800D2D00D30C25E562CE
:100BC000C4E91758201D00F0CEFA04F1180000F017
:100BD000CAFA2461C5F10D006462A061C4F86480A2
:100BE00084F8688052465946384600F057FA20602B
:100BF000B9F1000F01D0C9F80040BDE8F09F000036
:100C000030B5114900E011460A688242FBD34B68B7
:100C10005C18844203D14068184448600846436821
:100C20001C18944209D1084C103C2468A24209D0F7
:100C300052681A4442600A6812680260814200D019
:100C4000086030BD0460F9E76080FF1F70B50024C4
:100C500041600B4D0061914206D8D11A82699142E0
:100C600006D2011D286907E09A4203D2994201D3B6
:100C7000012403E0011DE86800F078FA204670BD09
:100C80000000002010B5044600F094FAA06B20B1DB
:100C9000002400F0AFFA204610BD0124F9E700005F
:100CA00030B585B0394D67E00198002864DB039CBE
:100CB000606910B1201D00F007FA04A800F0D8F810
:100CC000024601980A2857D2DFE800F00505052DF5
:100CD000334A05052D3394F8280040F0010084F8CC
:100CE00028000298A169034601442046FFF7AEFFA1
:100CF00068B3216A2046884794F8280040073BD50E
:100D0000002000900298A16900234218194620464D
:100D100001F0FAF8D8B9502080F31188BFF34F8F53
:100D2000BFF36F8FFEE714F8280F20F0010020704A
:100D300022E094F8280040F0010084F8280002988E
:100D4000A06128B1811813462046FFF77FFF13E00A
:100D5000502080F31188BFF34F8FBFF36F8FFEE7F2
:100D600094F82800810703D4204600F057FA03E0E6
:100D700020F0010084F82800002201A9286800F072
:100D8000FBFD002890D105B030BD00000000002020
:100D90002DE9FC410F46054600F0A0FB01A800F03C
:100DA00067F80446019818B101F01CF8BDE8FC8111
:100DB000254EAFB130690068D0B30027291B3A46F1
:100DC000306800F0A1FA01F00DF80028EED11F49BB
:100DD0004FF080500860BFF34F8FBFF36F8FE5E790
:100DE000A542EBD800F0FEFFF0682746C068C46853
:100DF000201D00F069F994F82800410719D5A06971
:100E00002B4641193A462046FFF720FFA8B10020A3
:100E10000346014600902A46204601F075F860B965
:100E2000502080F31188BFF34F8FBFF36F8FFEE721
:100E300007E020F0010084F82800216A2046884756
:100E4000B4E70127BAE700000000002004ED00E04D
:100E50000648416B096829B1416BC968C96849688E
:100E6000816270474FF0FF31FAE700001480FF1FE6
:100E700070B5054600F0BEFE064E0446B0688442DA
:100E800003D200F009F8012000E00020286020468D
:100E9000B46070BD00000020F8B5194E20E0C068B5
:100EA000C4680568201D00F00FF9216A20468847B4
:100EB00094F82800400713D5A0692844A84206D911
:100EC00024616060211DF06800F050F908E0002006
:100ED0000346014600902A46204601F015F838B135
:100EE000F06801680029DAD13169C6E90310F8BD5C
:100EF000502080F31188BFF34F8FBFF36F8FFEE751
:100F00000000002008484068401C4FF0500080F36B
:100F1000118804D0BFF34F8FBFF36F8FFEE7BFF38D
:100F20004F8FBFF36F8FFEE714000020084CE0687E
:100F3000016839B1002139B10020FFF729FFFFF71F
:100F4000AFFEF4E70121F6E7C0680068F5E70000AE
:100F5000000000202DE9F041044600F02BF994F93F
:100F6000455004F1240609E0606A48B1304600F0BB
:100F7000FDFE08B100F036FA6D1E6DB2002DF3DCF7
:100F80004FF0FF3684F8456000F034F900F012F9B4
:100F900094F9445004F1100709E0206948B138463B
:100FA00000F0E4FE08B100F01DFA6D1E6DB2002DD8
:100FB000F3DC84F84460BDE8F04100F01BB90000A8
:100FC0002DE9F0410546002600F088FA324F3868D6
:100FD00008B9FFF759FDF86805424BD1C5B308358C
:100FE00068070ED005F00700C0F108000544680747
:100FF00007D0502080F31188BFF34F8FBFF36F8F5E
:10100000FEE72DB37868854234D82349103108466D
:10101000046801E0214604466068A84202D22068C4
:101020000028F7D13868844224D00E682068086010
:1010300060680836411B10290FD96019420708D093
:10104000502080F31188BFF34F8FBFF36F8FFEE7FF
:1010500010E041606560FFF7D3FD61687868401A71
:101060007860BA68904200D2B860F8680143002006
:10107000C4E9000100F0B6FE0EB900F057F87007A1
:1010800007D0502080F31188BFF34F8FBFF36F8FCD
:10109000FEE73046BDE8F0815080FF1F10B5031F0A
:1010A0004FF080741C601B1F21F001011960191F93
:1010B000044B0B6014390A60091F6FF002024438B8
:1010C0000A6010BD050F0000D0E9013201699A6085
:1010D000D0E901235A604A68824201D182684A609D
:1010E000002202610868401E08600868704700001E
:1010F000034B0360A3F50070086080201060704708
:1011000024020020044B0360A3F5006008604FF444
:101110000070106070470000900A0020024841688B
:10112000491C4160704700000880FF1F70477047EE
:1011300006490888401C80B20880B0F57A7F04D345
:10114000002008804A68C1E9010270470880FF1F3B
:1011500000F108014FF0FF32C0E90112C1600161E6
:1011600000210160704700210161704730B50C68B3
:10117000621C02D000F1080202E0026904E01A4693
:1011800053681D68A542FAD953684B6099608A601C
:10119000516008610168491C016030BD42684A60C5
:1011A00093688B6093685960916008610168491C7D
:1011B00001607047502080F31188BFF34F8FBFF359
:1011C0006F8F0A494868401C486001280CD10848C4
:1011D000006810F0FF0F07D0502080F31188BFF394
:1011E0004F8FBFF36F8FFEE77047000014000020A1
:1011F00004ED00E00849486828B1401E486001D16C
:1012000080F311887047502080F31188BFF34F8F0F
:10121000BFF36F8FFEE700001400002070B50028B8
:1012200027D0144DA0F108046068E968084207D18E
:10123000502080F31188BFF34F8FBFF36F8FFEE70D
:1012400022683AB1502080F31188BFF34F8FBFF36B
:101250006F8FFEE78843606000F040F9606869685E
:10126000084468602046FFF7CBFCBDE8704000F002
:10127000B9BD70BD5080FF1F4FF0E020002101611B
:101280008161024941610721016170477F38010096
:1012900010B5FFF725F9114910280ED300F1E02011
:1012A00090F8F0030A78904207D2502080F311881A
:1012B000BFF34F8FBFF36F8FFEE70948006889685F
:1012C00000F4E060884207D9502080F31188BFF312
:1012D0004F8FBFF36F8FFEE710BD0000140000209A
:1012E0000CED00E010B5074B002253F832401CB162
:1012F000521C082AF9D310BD43F8321003EBC20187
:10130000486010BD6880FF1F70B515460E46044644
:10131000FFF750FF94F944100020491C01D184F8D4
:10132000440094F94510491C01D184F84500FFF7A9
:1013300061FFA06B28B92A46314604F1240000F071
:101340006FF82046BDE87040FFF704BE064C4FF42E
:10135000FA75D4F8CC0080F00201C4F8CC1028460D
:1013600000F012F8F5E7000000F00F40054CD4F84B
:10137000CC0080F00100C4F8CC00642000F004F838
:10138000F5E7000000F00F4010B5020014D00F4840
:10139000006B38B1502080F31188BFF34F8FBFF33B
:1013A0006F8FFEE700F09AF800211046FFF73CFA35
:1013B00000F018FD002807D105494FF08050086063
:1013C000BFF34F8FBFF36F8F10BD00001480FF1F5E
:1013D00004ED00E002490A6A0260C9684160704792
:1013E0001480FF1F01490120C86170471480FF1F4E
:1013F00010B50C4650B1094909681831FFF7B6FE1F
:101400002046BDE810400121FFF70EBA502080F3BE
:101410001188BFF34F8FBFF36F8FFEE71480FF1F5C
:1014200070B514460D4668B10A4909681831FFF7CE
:10143000B5FE0CB14FF0FF3521462846BDE870409F
:10144000FFF7F2B9502080F31188BFF34F8FBFF33D
:101450006F8FFEE71480FF1F30B587B0002503951E
:1014600005AA04A903A80495FFF742FEDDE90301DC
:101470000095CDE90110002314A11648059A00F04B
:101480007EFB154CE06218B100F00EFD012809D07A
:10149000401C19D1502080F31188BFF34F8FBFF348
:1014A0006F8FFEE7502080F31188BFF34F8FBFF39B
:1014B0006F8F4FF0FF30A06201206061E56007B0E0
:1014C000BDE8304000F056B807B030BD49444C4547
:1014D00000000000D50A00001480FF1F0248016BC5
:1014E000491C0163704700001480FF1F10B51F4C9A
:1014F000206B10B10120E06110BD0020E061206888
:101500004FF0A532006B0168914208D141689142C9
:1015100005D18168914202D1C068904204D021680F
:1015200020683431FFF703FE20691149B0FA80F0DA
:10153000C0F11F0000EB800051F820206AB101EBE0
:10154000800000F10802416849684160914201D180
:1015500049684160C868206010BD502080F3118840
:10156000BFF34F8FBFF36F8FFEE700001480FF1FA4
:10157000A880FF1F1CB537480168374A914207D140
:10158000502080F31188BFF34F8FBFF36F8FFEE7BA
:1015900000683149491E884207D1502080F31188E4
:1015A000BFF34F8FBFF36F8FFEE72C490878019090
:1015B000FF20087008788DF800009DF800009DF865
:1015C000002000F0F000904207D0502080F31188F6
:1015D000BFF34F8FBFF36F8FFEE79DF80000204AE7
:1015E00000F0500010700720906006E0401E9060F0
:1015F0009DF8000040008DF800009DF800000006F6
:101600009068F3D4032807D0502080F31188BFF3EB
:101610004F8FBFF36F8FFEE74FF4407090600198DB
:1016200008700C482030016841F4700101600168C5
:1016300041F070410160FFF71FFE00205060FEF78F
:1016400017FF0848016841F040410160FEF7FCFEC9
:1016500000201CBD00ED00E071C20F4100E400E07D
:101660001400002034EF00E038B5049D18B153B1E8
:10167000CAB181B120E0502080F31188BFF34F8FB1
:10168000BFF36F8FFEE7502080F31188BFF34F8FB9
:10169000BFF36F8FFEE7502080F31188BFF34F8FA9
:1016A000BFF36F8FFEE739B1502080F31188BFF38D
:1016B0004F8FBFF36F8FFEE750241C46012384F841
:1016C00046302B460094FFF735FA204638BD00001F
:1016D00070B50D46040025D0FFF76CFDD4E90F204E
:1016E000216802FB0011A1600021A16321686160F3
:1016F0000A46D4E90F01401E00FB0121E1602146AA
:101700004FF0FF3001F8440F487004F110008DB124
:10171000FFF71EFD04F12400FFF71AFDFFF76AFD35
:10172000012070BD502080F31188BFF34F8FBFF3AD
:101730006F8FFEE721690029F0D000F017FB002829
:10174000ECD004494FF080500860BFF34F8FBFF3D7
:101750006F8FE3E704ED00E02DE9FF4F83B01F46F4
:101760008B4604004FF0000603D0BBF1000F08D0F9
:1017700011E0502080F31188BFF34F8FBFF36F8FBC
:10178000FEE7206C38B1502080F31188BFF34F8FF3
:10179000BFF36F8FFEE7022F0AD1E06B012807D05D
:1017A000502080F31188BFF34F8FBFF36F8FFEE798
:1017B00000F012FADFF800914FF0000A4FF0805865
:1017C00048B9059838B1502080F31188BFF34F8F86
:1017D000BFF36F8FFEE7FFF7EDFCA06BE16B884274
:1017E00005D3022F03D00598C8B1DEB11EE03A46FA
:1017F00059462046FFF7F7F8616A19B104F1240051
:1018000000F0B4FA28B1C9F80080BFF34F8FBFF3DE
:101810006F8FFFF7EFFC012007B0BDE8F08FFFF7F7
:10182000E9FC21E06846FFF7D5FD0126FFF7E2FC61
:10183000FFF754FEFFF7BEFC94F94400401C01D1B1
:1018400084F844A094F94500401C01D184F845A0D7
:10185000FFF7D0FC05A9684600F02AF930B1204610
:10186000FFF778FB00F0BEFA0020D5E7FFF7A2FCF7
:10187000A06BE16B884201D1012500E00025FFF754
:10188000B9FC95B104F110000599FFF7B1FD2046B0
:10189000FFF760FB00F0A6FA00289CD1C9F8008091
:1018A000BFF34F8FBFF36F8F95E72046FFF752FBD3
:1018B00000F098FA8FE7000004ED00E02DE9F04712
:1018C0001F4690468946040003D0B9F1000F08D0A6
:1018D00011E0502080F31188BFF34F8FBFF36F8F5B
:1018E000FEE7206C38B1502080F31188BFF34F8F92
:1018F000BFF36F8FFEE7022F0AD1E06B012807D0FC
:10190000502080F31188BFF34F8FBFF36F8FFEE736
:10191000FFF7BEFC5020EFF3118680F31188BFF370
:101920004F8FBFF36F8FA06BE16B884206D3022FFE
:1019300004D0002086F31188BDE8F08794F9455063
:101940003A4649462046FFF74EF8681C04D06D1C05
:1019500084F845500120EDE7606A0028FAD004F1D0
:10196000240000F003FA0028F4D0B8F1000FF1D001
:101970000121C8F80010EDE72DE9F74783B08A464A
:1019800004004FF0000603D0BAF1000F08D011E0B8
:10199000502080F31188BFF34F8FBFF36F8FFEE7A6
:1019A000206C38B1502080F31188BFF34F8FBFF304
:1019B0006F8FFEE700F010F9DFF8F09000274FF08E
:1019C000805848B9059838B1502080F31188BFF38A
:1019D0004F8FBFF36F8FFEE7FFF7ECFBA56BC5B131
:1019E00051462046FEF7ECFF6D1EA563206950B1FD
:1019F00004F1100000F0BAF928B1C9F80080BFF373
:101A00004F8FBFF36F8FFFF7F5FB012006B0BDE8E6
:101A1000F087059808B11EB106E0FFF7EBFB27E061
:101A20006846FFF7D7FC0126FFF7E4FBFFF756FDFA
:101A3000FFF7C0FB94F94400401C01D184F84470C6
:101A400094F94500401C01D184F84570FFF7D2FBA2
:101A500005A9684600F02CF8002820460AD0FFF7B8
:101A600079FA00F0BFF92046FFF70CF90028B3D04F
:101A70000020CBE7FFF706F990B104F124000599A7
:101A8000FFF7B6FC2046FFF765FA00F0ABF9002837
:101A9000A2D1C9F80080BFF34F8FBFF36F8F9BE7D0
:101AA0002046FFF757FA00F09DF995E704ED00E0B6
:101AB0002DE9F0410C46050011D0C4B1FFF77AFBC7
:101AC000174EF1686B682268C81A571C17D02F6828
:101AD000366AB74219D08B4217D8012410E0502043
:101AE00080F31188BFF34F8FBFF36F8FFEE7502055
:101AF00080F31188BFF34F8FBFF36F8FFEE7002491
:101B0000FFF778FB2046BDE8F081824205D9101A24
:101B100020602846FFF75EFCF1E700202060DCE74C
:101B20001480FF1F2DE9FF5F8346DDE90E8799468C
:101B300016468A469000FFF743FA05001CD06C2039
:101B4000FFF73EFA040014D00020256384F86900F2
:101B5000CDE90240CDE900874B4632465146584612
:101B6000FEF7F8FF2046FEF797FE012004B0BDE81F
:101B7000F09F2846FFF752FB4FF0FF30F6E7F0B535
:101B800085B00546DDE90B040A9EA8B1E4B16C27D7
:101B900000972063022084F869000020CDE902400C
:101BA00004AF2846CDE90067FEF7D4FF2046FEF7D4
:101BB00073FE049805B0F0BD502080F31188BFF388
:101BC0004F8FBFF36F8FFEE7502080F31188BFF374
:101BD0004F8FBFF36F8FFEE70548416919B1006B66
:101BE00018B10020704701207047022070470000A4
:101BF0001480FF1F0148C068704700001480FF1F59
:101C00002DE9F041314F0026386B18B1B869401CFE
:101C1000B86152E0FD686D1CFD6013D1786B0068FF
:101C200038B1502080F31188BFF34F8FBFF36F8F0F
:101C3000FEE7786BB96B7963B863386A401C386229
:101C4000FFF706F9B86ADFF88880854209D3786B18
:101C5000006890B1786BC068C468606885420FD234
:101C6000B8623868C06A00EB800158F8210001288A
:101C700000D90126B86900B321E04FF0FF30EFE74B
:101C8000201DFFF721FAA06A18B104F11800FFF730
:101C90001BFAE06A01213A6981401143396100EB86
:101CA000800108EB8100211DFFF778FAE06A3968AE
:101CB000C96A8842CBD30126C9E7FFF739FAF86928
:101CC00000B101263046BDE8F08100001480FF1FFE
:101CD000A880FF1F70B504004FF0000041D0214DD7
:101CE00029688C4207D0502080F31188BFF34F8FB2
:101CF000BFF36F8FFEE7216E71B1491E2166E36D60
:101D0000E26A9A422DD000292BD1201DFFF7DCF981
:101D10001549012240B112E0502080F31188BFF331
:101D20004F8FBFF36F8FFEE7E06A00EB800351F83F
:101D3000233023B92B6902FA00F083432B61E06D55
:101D4000E062C0F10D00A061E06A2B6982401A4395
:101D50002A6100EB800001EB8000211DFFF71EFAD5
:101D6000012070BD1480FF1FA880FF1F2DE9F041E6
:101D7000C068C468ACB104F118000746FFF7A4F9C5
:101D8000154D286B0126A0B139461448FFF706FA15
:101D9000E06A2968C96A88421BD90120EE61BDE862
:101DA000F081502080F31188BFF34F8FBFF36F8F06
:101DB000FEE7201DFFF788F9E06A2A6906FA00F1BC
:101DC00011432961064900EB800001EB8000211DD1
:101DD000DCE70020E3E700001480FF1FD481FF1F31
:101DE000A880FF1F2DE9F0472C4D00242746286BC3
:101DF00038B1FFF7DFF9286B401E2863286B40B12C
:101E000046E0502080F31188BFF34F8FBFF36F8FF0
:101E1000FEE7A86822490126D0B3A1F59679884645
:101E2000D8F80010E9B1D8F80C00C46804F1180023
:101E3000FFF74AF9201DFFF747F9E06A2A6906FA19
:101E400000F11143296100EB800109EB8100211DA4
:101E5000FFF7A4F9E06A2968C96A8842E0D3EE6115
:101E6000DEE70CB1FEF7F4FFAC693CB1FFF7C8FE4A
:101E700000B1EE61641EF9D10020A861E86938B1B3
:101E80000849012738070860BFF34F8FBFF36F8FF2
:101E9000FFF7B0F93846BDE8F08700001480FF1F57
:101EA000D481FF1F04ED00E010B586B0FEF75CFDA5
:101EB000114C2068B8B100200390049005AA04A931
:101EC00003A8FFF71FF9DDE9032102208DE80700D1
:101ED00000230AA10B48059AFFF751FE606010B17C
:101EE00006B0012010BD502080F31188BFF34F8F42
:101EF000BFF36F8FFEE7000000000020546D7220DA
:101F0000537663002D0F0000FEB51F460300089EA8
:101F10004FF0000013D0124D2C68002C0ED08DE82D
:101F20000E00062915DAFFF757FE02284FF00003CE
:101F30000DD0002269462868FFF70EFCFEBD502038
:101F400080F31188BFF34F8FBFF36F8FFEE73246E8
:101F5000F0E700233A4669462046FFF7AFFCFEBD96
:101F60000000002008ED00E0006CDC0200751903A1
:101F7000007E560300879303B81F00000080FF1FF8
:101F800068000000F0060000202000000000002093
:101F900024000000F0060000202000006880FF1FE1
:101FA00098220000000700004420000024000020C8
:101FB000D80A000000070000000000000000000038
:101FC0000000000000000000000000000000000011
:101FD0000000000000000000000000000000000001
:101FE00000000000000000000000000000000000F1
:101FF00000000000000000000000000000000000E1
:1020000000000000000000000000000000000000D0
:1020100000000000000000000000000000000000C0
:1020200000000000000000000000000000000000B0
:102030000000000000000000AAAAAAAA00000000F8
:04204000006CDC0252
:0400000500000411E2
:00000001FF
