:020000040000FA
:1000000000600020B1040000C3040000C50400002B
:10001000C7040000C9040000CB0400000000000079
:10002000000000000000000000000000CD040000FF
:10003000CF04000000000000D1040000D304000041
:10004000D5040000D5040000D5040000D50400004C
:10005000D5040000D5040000D5040000D50400003C
:10006000D5040000D5040000D5040000D50400002C
:10007000D5040000D5040000D5040000D50400001C
:10008000D5040000D5040000D5040000D50400000C
:10009000D5040000D5040000D5040000D5040000FC
:1000A000D5040000D5040000D5040000D5040000EC
:1000B000D5040000D5040000D5040000D5040000DC
:1000C000D5040000D5040000D5040000D5040000CC
:1000D000D5040000D5040000D5040000D5040000BC
:1000E000D5040000D5040000D5040000D5040000AC
:1000F000D5040000D5040000D5040000D50400009C
:10010000D5040000D5040000D5040000D50400008B
:10011000D5040000D5040000D5040000D50400007B
:10012000D5040000D5040000D5040000D50400006B
:10013000D5040000D5040000D5040000D50400005B
:10014000D5040000D5040000D5040000D50400004B
:10015000D5040000D5040000D5040000D50400003B
:10016000D5040000D5040000D5040000D50400002B
:10017000D5040000D5040000D5040000D50400001B
:10018000D504000071060000D5040000D50400006D
:10019000D5040000D5040000D5040000D5040000FB
:1001A000D5040000D5040000D5040000D5040000EB
:1001B000D5040000D5040000D5040000D5040000DB
:1001C000D5040000D5040000D5040000D5040000CB
:1003F000D5040000D5040000D5040000FFFFFFFF76
:020000040000FA
:10040000FFFFFFFFFFFFFFFFFFFFFFFFFE7FFFFF7D
:020000040000FA
:1004100000F002F800F03CF80AA090E8000C8244DA
:100420008344AAF10107DA4501D100F031F8AFF2B7
:10043000090EBAE80F0013F0010F18BFFB1A43F0C2
:10044000010318479C0F0000CC0F0000103A24BF96
:1004500078C878C1FAD8520724BF30C830C144BF29
:1004600004680C607047000000230024002500266B
:10047000103A28BF78C1FBD8520728BF30C148BF07
:100480000B6070471FB500F081FF1FBD10B510BD98
:10049000DFF80CD0FFF7F6FF00F030FF00F0C7F8F0
:1004A0000060002003B4FFF7F1FF03BC00F0CAF8BE
:1004B000094872B6094880470948804762B609482A
:1004C0000047FEE7FEE7FEE7FEE7FEE7FEE7FEE7A2
:1004D000FEE7FEE7FEE7000000040000A90D0000B3
:1004E000B51200001104000040EA010310B59B079B
:1004F0000FD1042A0DD310C808C9121F9C42F8D08E
:1005000020BA19BA884201D9012010BD4FF0FF303E
:1005100010BD1AB1D30703D0521C07E0002010BD54
:1005200010F8013B11F8014B1B1B07D110F8013BE0
:1005300011F8014B1B1B01D1921EF1D1184610BDC1
:10054000032A40F2308010F0030C00F0158011F8FF
:10055000013BBCF1020F624498BF11F801CB00F8D7
:10056000013B38BF11F8013BA2F1040298BF00F82B
:1005700001CB38BF00F8013B11F0030300F02580E8
:10058000083AC0F0088051F8043B083A51F804CB0F
:10059000A0E80810F5E7121D5CBF51F8043B40F8D5
:1005A000043BAFF30080D20724BF11F8013B11F8E0
:1005B00001CB48BF11F8012B24BF00F8013B00F824
:1005C00001CB48BF00F8012B704710B5203AC0F0AE
:1005D0000B80B1E81850203AA0E81850B1E8185044
:1005E000A0E81850BFF4F5AF5FEA027C24BFB1E881
:1005F0001850A0E8185044BF18C918C0BDE81040F2
:100600005FEA827C24BF51F8043B40F8043B08BFFA
:100610007047D20728BF31F8023B48BF11F8012BC1
:1006200028BF20F8023B48BF00F8012B704710B5E7
:100630000446AFF300802046BDE81040FFF732BF0C
:100640007047000001491820ABBEFEE726000200FB
:1006500046F22D1CC2F2000C604746F2350CC2F285
:10066000000C604746F2711CC2F2000C60470000AB
:100670007CB51F4C0021206B800606D5D4F8800085
:10068000C20203D5A068402020637CBD820200D551
:100690000121C0F30343D4F8840021B120F060406D
:1006A00040F0004201E0C0F38A42D4F88810D4F848
:1006B0008C00A568202525630C0E8DF800400C0CDD
:1006C0008DF801400C0A8DF802408DF80310010EE0
:1006D0008DF80410010C8DF80510010A8DF8061034
:1006E0008DF8070091B26A46024800F06DF87CBDB3
:1006F000004002404090FF1F10B5184B0024D3F873
:100700007021C2F303620AB1082AF8D14FF4004203
:100710001A630A7862F31F644A7862F317448A788E
:1007200062F30F24CA7862F30704C3F878410A79A8
:1007300062F31F644A7962F317448A79C97962F3D4
:100740000F2461F30704C3F87C410549C3F8701115
:100750008004C3F87401002010BD00000040024076
:100760000000480C70B50C46054600F0A1F9287849
:1007700028B3A87805EB001148682060087C207336
:10078000087A2071487A6071887AA071C87AE0711D
:10079000087B2072487B6072887BA072C87BE07205
:1007A000A878401CC0B2A8701E2801D30020A870F1
:1007B0002878401E287000F083F9002070BD00F0FA
:1007C0007FF94FF0FF3070BD2DE9F0411E46144611
:1007D0000F46054600F06CF9687805EB001047609D
:1007E00006742178017261784172A1788172E17892
:1007F000C1722179017361794173A1798173E179C2
:10080000C1736878401CC0B268701E2801D30020F4
:1008100068702878401C2870BDE8F04100F050B99D
:10082000154810B5134941604FF6FF7181604FF4D0
:100830000451016000F05EF900F072F900F04CF92B
:1008400000F072FA0D48D0F8301141F08041C0F844
:1008500030110B48416841F480714160094850F8FB
:10086000D41F41F0020140F81419016821F002017F
:10087000016010BD20C528D9002005400050064069
:1008800000C0044000F00F4001490248FFF7E0BEFD
:100890002490FF1F981300002B4850F8901F41F040
:1008A000804101602949086840F0004008604868BC
:1008B00020F400504860086820F000400860086894
:1008C00040F080400860086840F080500860086888
:1008D000C001FCD508681E4A1043086000224A6027
:1008E0001C484860486820F0400048600868800064
:1008F00005D5486B20F0706040F080704863182088
:1009000001EB8003C3F88020401CC0B28028F7D3DD
:10091000002001EB8003C3F88028401CC0B21028DF
:10092000F7D30A6120208862086820F080500860B0
:10093000086820F0804008600868C001FCD408689E
:100940000001FCD470470000005006400040024007
:1009500010000320D6CCE2000F4810B5D0F83411B7
:1009600041F08041C0F834110C48016941F4A061A4
:100970000161416941F4A0614161FFF78DFF4FF0D2
:10098000E0204FF40031C0F88812C0F80811044983
:100990006020087010BD00000050064000D00440E8
:1009A00051E400E070B50FA0D0E900120F48C0E993
:1009B000001200F07DF84FF480554FF4E0262A46EF
:1009C00031460B48FFF749FE040006D1074B2A4683
:1009D00031460748FFF746FE044600F071F820460E
:1009E00070BD000041505055504F4B202480FF1FD8
:1009F0002490FF1F1FB512A04FF48052D0E90010C1
:100A0000CDE9001010A0D0E90010CDE902104FF49C
:100A1000E0210F48FFF794FD082269460C48FFF7D4
:100A200063FD40B1082202A90948FFF75DFD20B12E
:100A3000002004B010BD0120FBE70220F9E7000010
:100A4000474F544F424F4F5441505055504F4B20F9
:100A50002480FF1F2DE9F04107464FF4803000EB62
:100A6000013506111C46324629460F48FFF768FD3E
:100A70000D48F21000EB44203946FFF761FD00F00D
:100A800017F8294632460948FFF7E7FD040006D16A
:100A90002946054B32460548FFF7E4FD044600F0C1
:100AA0000FF82046BDE8F0812480FF1F2490FF1F2F
:100AB00072B602480168491C016070471C80FF1F24
:100AC00004490868002804DD401E0860002800DC96
:100AD00062B670471C80FF1F0548044941610169E7
:100AE000C1F303610629FAD1704700001200010624
:100AF00000400640094840F20111C0F804112421C9
:100B0000C0F80811D0F800110902FBD40121C0F887
:100B10000011D0F80011C901FBD570470040064014
:100B20000B4801680902FCD400210160084A40F228
:100B30000231121D1160121D4FF4C01111600168C5
:100B40000902FCD4012101600168C901FCD570478C
:100B5000004606402DE9F74F4178002401F07F0060
:100B6000CD090126DFF88CB086B027464FF050083B
:100B70004FF032094FF0F40A01280AD002280FD0B2
:100B8000032821D0122400F08DFB09B02046BDE8D7
:100B9000F08F002DF7D18DF800808DF8016018E0FE
:100BA00015484078032805D0012803D0022801D039
:100BB0002224E8E700F076FB0F490220002D487060
:100BC000E1D18DF8008002E08DF8008003208DF8DF
:100BD00001008DF802708DF804608DF803908DF897
:100BE00005A0DBF8000006226946089B00F070F9BA
:100BF000C9E70000B81300001080FF1F30B540782F
:100C0000002500F07F04C1095120134B85B0012C51
:100C100007D0022C0BD0032C0FD0122505B028468C
:100C200030BD0029FAD18DF8000001200AE000292A
:100C3000F4D18DF80000022004E00029EED18DF8F7
:100C4000000003208DF8010018681346022269464F
:100C500000F03EF9E2E70000B813000030B58078FC
:100C600085B000F00F04010974200025641E8DF882
:100C70000000032C20D8491E032902D91CE0641E61
:100C800064B2002CFBDA01E0491E49B20029FBDA0C
:100C900020208DF8010002208DF8020009498DF80E
:100CA000030000208880488007481346042200681B
:100CB000694600F00DF900E0132500F0F3FA05B0E5
:100CC000284630BD1080FF1FB8130000F0B5144C4B
:100CD0001746457885B00026A178A3884FF4807226
:100CE000801CFFF7B7FEA088401C80B2A0800828B7
:100CF00004D30020A0806088401C608076208DF89E
:100D0000000008488DF801503B4600680222694601
:100D100000F0DEF800F0C6FA05B03046F0BD000085
:100D20001080FF1FB8130000194A1069C0F3034375
:100D300010695B1CC0F303611648012913D0022916
:100D400016D003291BD0062911D113480168006869
:100D5000C1F30221C0F304400E4A10305043491C35
:100D60004900B0FBF1F0B0FBF3F00C4908607047AC
:100D7000D2F8081211F0010FF5D10948F3E7D2F8C3
:100D80000803084900F0030051F82000EBE70000D9
:100D90000040064000127A00084606402080FF1FEF
:100DA00080841E00D01300000A48016841F47001DD
:100DB00001600948016821F0804101600848074945
:100DC0004160416842F2201101604FF6FF7181607D
:100DD0007047000088ED00E034EF00E020C528D91E
:100DE00000200540F0B50478364F91B01646102C1F
:100DF00019D0112C1AD0222C1BD0342C42D0362CD6
:100E000043D0372C0DD1772013468DF800000122F6
:100E10006946386800F05CF82B490120087000F042
:100E200041FA11B0F0BDFFF795FE30E0FFF7E6FEA6
:100E30002DE0857890F801C0244905EB0C25134678
:100E40001FFA85FCD1E900210025ACF5CC4EBEF19E
:100E5000660E04D0312500F025FA284617E0CDF8BB
:100E60000320CDF8071062218DF8001041788DF82D
:100E7000011080788DF802000B226946386800F076
:100E800027F8E8E7FFF7EAFE01E0FFF71FFF002879
:100E9000C7D07F218DF800108DF801408DF8020039
:100EA0004EB11128BDD07F28BBD01228B9D07E28E2
:100EB000B7D03128B5D0002303226946386800F046
:100EC00007F8AEE7B81300001080FF1FAC13000056
:100ED0002DE9FF4F83B014460D46D0B24FF0AA0A59
:100EE000082A18D28DF8000000206A4603E0295C29
:100EF0001318401C5970A042F9D35146072803D259
:100F00001318401C5970F9E711460398FFF7F4FBDA
:100F100007B0BDE8F08FDFF82881012288F80020B3
:100F2000611C0723B1FBF3F6C8F80460B1FBF3F6CC
:100F300003FB161121B1D8F80410491CC8F804109D
:100F40000021C8F80810102343EA14238DF800305C
:100F50008DF8010008466F462B5C3E18401CB370AC
:100F60000628F9DBC8F81420894688F8101039469D
:100F70000398FFF7C1FB4FF47A7B4646C8F80CB0E4
:100F800004E0307C10B1C6F8149002E0F06800284C
:100F9000F7D17069B0BBB07C28B198F81210404608
:100FA000802900D2807C7068401E7060484637E01F
:100FB000B068401C00F00F0040F020008DF80000E9
:100FC000B1687068401E814201D2082305E0B06814
:100FD000A0EBC0002044401FC3B200205B1E08E00D
:100FE000B1683A18C1EBC10101442944401C897918
:100FF00051709842F4DB5146072804DA3A18401C35
:101000005170F9E715E069460398FFF775FB707CAE
:1010100020B1B068717C401C884206D2B068401C88
:10102000B060B06871688842C2D3B06871688842A5
:1010300002D388F800906BE786F810909DE70000D7
:10104000549AFF1F7CB55EA1D1E90031CDE9003192
:101050000AB15D4C00E05D4C01784FF001060A09D1
:101060004FF0000540D00722B6EB111F54D1C4F851
:101070001454C4F808540378417803F00F0301EBCB
:101080000321C4F80014D4F80014891FB1FBF2F155
:10109000C4F80C14D4F80014891FB1FBF2F302FB5E
:1010A000131101B10121D4F80C241144C4F80C141B
:1010B000D0F802102160C088A080AA208DF804001A
:1010C0008DF801508DF805008DF802608DF806004E
:1010D0008DF803008DF80700694640F29770FFF71E
:1010E0000BFB84F810647CBD4178217081786170BD
:1010F000C178A1700179E1704179217181796171C3
:10110000C179A171C4F80C54C4F80854007800F0F7
:101110000F00C4F800044DE0D4F80C34F3B30223FC
:10112000B3EB111FDFD1C4F81454D4F80814491CD0
:10113000C4F80814D4F80814037801F00F0103F080
:101140000F03994202D084F810547CBDD4F80C14DB
:10115000022912D3D4F8081450F8012FC1EBC101B1
:10116000214441F8012D82888A8080798871D4F8E1
:101170000C04401EC4F80C047CBDD4F80014891F74
:10118000B1FBF2F302FB131202B90722D4F80814E0
:10119000C1EBC1010B19411C581E00E00DE0FFF727
:1011A000CFF9D4F80C04401EC4F80C04C4F8085459
:1011B00084F8105484F804647CBDC4F80854C2E771
:1011C00030000200000000003C96FF1F2492FF1F29
:1011D000002A0BD1032909D30178302906D104490B
:1011E00042784A748078887401200874704700003F
:1011F000549AFF1F2DE9F04700F0C4F8234DDFF8A3
:1012000088808146002405F5836621494846FFF71A
:10121000A9FAC8F80000002833D11D48031D016851
:10122000077B21F00040A0F5E061873903D0A0F5ED
:10123000E061DF390DD116482838007820B100224E
:1012400039461846FFF7C4FF002239461846FFF713
:10125000F9FE95F8040438B185F80444D5F8001473
:1012600000220A48FFF7BEFD96F804040028CCD0FF
:1012700086F80444D6F8001401220648FFF7B2FDB0
:10128000C3E7BDE8F08700001880FF1F2492FF1F0E
:101290007C9AFF1F3C96FF1F0148007870470000B2
:1012A0001080FF1F024941F28830486270470000F9
:1012B000549AFF1F78B50D480D490E4A0068002466
:1012C0006D46009091420FD00B4B00205B1A04E05A
:1012D00052F8206041F82060401CB0EB930FF7D328
:1012E00055F82400016078BD026078BDCC13000081
:1012F00000000000000000000080FF1FFFF790FAD0
:10130000FFF7C2FAFFF728FBFFF774FB1B4C4FF403
:101310008035022804D0FFF76DFB012805D00EE0D0
:1013200072B668686060804709E0144940F29770BF
:101330000831FFF7E1F9FFF735FB00B900BF104EA8
:1013400047F230574FF0000800BFFFF7A5FF18B174
:1013500072B66868606080472088401C80B2208038
:10136000B84207D3A4F80080D6F8CC0080F0020081
:10137000C6F8CC00FFF73EFFE6E700000080FF1F45
:1013800000F00F40004870474090FF1F4FF0407042
:10139000E1EE100A704700000000000000000800A5
:1013A0000000001000000014FFFFFFFF56312E3038
:1013B00031000000000000009707000087070000D0
:1013C000DF070000AA000100E803000008ED00E0CC
:1013D000006CDC0200751903007E5603008793033E
:1013E000101400000080FF1F240000004C040000C7
:1013F0003414000000600020040200004C040000CF
:10140000341400002480FF1F681A000068040000E4
:101410000000000000000000065002003201F4AAA3
:1014200000010000000000000000000000000000BB
:10143000006CDC0270B50B4C06460025207840F0AD
:101440008000207003E0B169481C00D088472078F4
:101450000006F8D5207810F0710F00D0012528463D
:1014600070BD0000000002402DE9F04707460C4621
:10147000B968002015468C4209D3FA680A44A24292
:1014800005D9C1F500010C444FF400660DE0396840
:101490008C4207D37A680A44A24203D9641A4FF4F3
:1014A000805602E0012000252E46711E124A0D4290
:1014B00000D0042090464FF070094FF0090A002D2B
:1014C00017D0002815D198F800104046090601D41D
:1014D0000220F4E780F8009080F807A0210C8171C9
:1014E000210A417104713846FFF7A4FFAD1B344453
:1014F000E5E7BDE8F08700000000024030B54FF49A
:10150000803309B34FF0FF3201291FD002291DD0CB
:101510005C1003291CD0002504291BD0052915D0F7
:10152000062913D0072911D0082913D009290DD075
:101530000A2911D00B290BD00C2905D00D2905D073
:101540000E2903D00F2900D1C36030BDC26030BD69
:10155000C46030BDC56030BD4FF48041C16030BD56
:1015600070B50C4601682160416861608168A160C6
:10157000C16821610069A06109480025C06CC0F301
:1015800003312046FFF7BAFFE068B0F5803F02D292
:101590004FF4805000E000206061284670BD0000DC
:1015A000008004402DE9F04107460C4600201E460D
:1015B0001546510702D00420BDE8F081B968DFF874
:1015C00074808C4207D3FA680A44A24203D9C1F559
:1015D00000010C4429E039688C4205D37A680A443A
:1015E000A24201D9641A20E001201EE098F8001000
:1015F0004046090601D4022017E07021017007213E
:10160000C171210C8171210A41710471094A0020C4
:101610000832335C8354401CC0B20828F9D33846E2
:10162000FFF708FF0834083D0836002DC4D0002815
:08163000DCD0C1E7000002401C
:0400000500000411E2
:00000001FF
